:100000000C942A000C94300A0C94300A0C94300A98
:100010000C94300A0C94300A0C94300A0C94300A78
:100020000C94300A0C94300A0C94300A0C94300A68
:100030000C94300A0C94300A0C94300A0C94300A58
:100040000C94300A0C94300A0C94300A0C94300A48
:100050000C94300A11241FBECFE5D8E0DEBFCDBF1F
:0C0060000E9436000C94F509F894FFCFC4
:10006C000F931F93CF93DF93CDB7DEB7CC58D10945
:10007C000FB6F894DEBF0FBECDBF20EA36E841E0E4
:10008C0050E060E074E284EF90E00E941F080E9450
:10009C00900880E090E0A8ECB2E48B8B9C8BAD8B4D
:1000AC00BE8B20E030E04AE755E46B897C898D8972
:1000BC009E890E94290ADC01CB018F8B988FA98F16
:1000CC00BA8F20E030E040E85FE36F89788D898D4E
:1000DC009A8D0E941B0A88232CF481E090E09C8F5F
:1000EC008B8F3FC020E03FEF4FE757E46F89788D4F
:1000FC00898D9A8D0E94200A18164CF520E030E06C
:10010C0040E251E46B897C898D899E890E94290A81
:10011C00DC01CB01BC01CD010E946108DC01CB01EB
:10012C009C8F8B8F0FC080E991E09E8F8D8F8D8D72
:10013C009E8D0197F1F79E8F8D8F8B8D9C8D0197E6
:10014C009C8F8B8F8B8D9C8D892B69F714C06F893D
:10015C00788D898D9A8D0E946108DC01CB019C8F72
:10016C008B8F8B8D9C8D98A38F8F8F8D98A10197E2
:10017C00F1F798A38F8F0E9499090E94AE0980ED28
:10018C000E94200980E00E9420090E94AE0981EDA6
:10019C000E942009198210C08981082F10E00E944A
:1001AC005609282FCE0181589F4F800F911FFC01BB
:1001BC00208389818F5F89838981863068F30E94CF
:1001CC006D09282FCE0181589F4FFC0126830E9478
:1001DC003E06CE0181589F4FFC0180818F770E9493
:1001EC008409282FCE018A579F4FFC012083CE0112
:1001FC0081589F4FFC0181818F770E948409282FA1
:10020C00CE018A579F4FFC012183CE0181589F4F0D
:10021C00FC018281882F90E080749927892B79F0DA
:10022C00CE0181589F4FFC0182818F710E948409FD
:10023C00282FCE018A579F4FFC0122830EC0CE017E
:10024C0081589F4FFC0182818F730E948409282F53
:10025C00CE018A579F4FFC012283CE0181589F4FBC
:10026C00FC01838187700E948409282FCE018A5754
:10027C009F4FFC012383CE0181589F4FFC01848149
:10028C008F730E948409282FCE018A579F4FFC013F
:10029C002483CE0181589F4FFC0185818F710E9470
:1002AC008409282FCE018A579F4FFC012583CE014C
:1002BC0081589F4FFC0186810E948409282FCE0112
:1002CC008A579F4FFC0126830E94C20980E090E070
:1002DC00A0EAB1E48B879C87AD87BE872BEA3AEA0C
:1002EC004AEA50E46B857C858D859E850E94290A9F
:1002FC00DC01CB019E01235C3F4FF901808391838C
:10030C00A283B3838E010F5B1F4F20E030E040E8E7
:10031C0050E46B857C858D859E850E94290ADC01C5
:10032C00CB01F80180839183A283B38320E030E07A
:10033C0040E85FE3CE01CD96FC0160817181828142
:10034C0093810E941B0A88233CF4CE018B5B9F4F48
:10035C0021E0FC0120832AC1CE018F5B9F4F20E05E
:10036C003FEF4FE757E4FC016081718182819381FB
:10037C000E94200A18160CF0CDC020E030E04AE7AD
:10038C0054E46B857C858D859E850E94250ADC0155
:10039C00CB019E012A5B3F4FF90180839183A2839D
:1003AC00B3838E01065B1F4FCE018A5B9F4F20E00B
:1003BC0030E04AE755E4FC016081718182819381D0
:1003CC000E94290ADC01CB01F80180839183A2836E
:1003DC00B383CE01865B9F4F20E030E040E85FE3C3
:1003EC00FC0160817181828193810E941B0A8823A8
:1003FC004CF4CE01825B9F4F21E030E0FC01318355
:10040C0020836DC0CE01865B9F4F20E03FEF4FE70E
:10041C0057E4FC0160817181828193810E94200AE2
:10042C0018160CF04AC0CE018A5B9F4F20E030E0DA
:10043C0040E251E4FC0160817181828193810E94D0
:10044C00290ADC01CB018E01025B1F4FBC01CD01DF
:10045C000E946108DC01CB01F8019183808324C0E8
:10046C00CE01805B9F4F20E931E0FC01318320837A
:10047C00CE01805B9F4FFC01808191810197F1F748
:10048C009E01205B3F4FF90191838083CE01825BFB
:10049C009F4F9E01225B3F4FF901208131812150FA
:1004AC003109FC0131832083CE01825B9F4FFC011B
:1004BC0080819181892BA1F679C08E01025B1F4F3F
:1004CC00CE01865B9F4FFC0160817181828193819B
:1004DC000E946108DC01CB01F80191838083CE017D
:1004EC008E5A9F4F9E01225B3F4FF9012081318133
:1004FC00FC0131832083CE018E5A9F4FFC018081F9
:10050C0091810197F1F79E012E5A3F4FF90191838A
:10051C0080834CC020E030E04FE753E4CE01CD9611
:10052C00FC0160817181828193810E94200A1816DE
:10053C006CF58E010C5A1F4FCE018F5B9F4FFC0147
:10054C0060817181828193810E946108DC01CB0101
:10055C00F80191838083CE018A5A9F4F9E012C5AB9
:10056C003F4FF90120813181FC0131832083CE0181
:10057C008A5A9F4FFC01808191810197F1F79E016E
:10058C002A5A3F4FF9019183808327C08E010B5B60
:10059C001F4FCE01CD96FC016081718182819381C8
:1005AC000E946108DC01CB01F8018083CE01885ADE
:1005BC009F4F9E012B5B3F4FF9012081FC01208353
:1005CC00CE01885A9F4FFC018081282F2A95F1F784
:1005DC00CE01885A9F4FFC0120838AEA0E943C0975
:1005EC0080E090E0A8E4B2E48B839C83AD83BE836F
:1005FC002BEA3AEA4AEA50E46B817C818D819E8138
:10060C000E94290ADC01CB0189A39AA3ABA3BCA34A
:10061C0020E030E040E850E46B817C818D819E814C
:10062C000E94290ADC01CB018DA39EA3AFA3B8A71E
:10063C0020E030E040E85FE369A17AA18BA19CA1A6
:10064C000E941B0A88231CF481E089A7B2C020E019
:10065C003FEF4FE757E46DA17EA18FA198A50E94B3
:10066C00200A18160CF07BC020E030E04AE754E476
:10067C006B817C818D819E810E94250ADC01CB01DE
:10068C008AA79BA7ACA7BDA720E030E04AE755E4BA
:10069C006AA57BA58CA59DA50E94290ADC01CB012E
:1006AC008EA79FA7A8ABB9AB20E030E040E85FE392
:1006BC006EA57FA588A999A90E941B0A88232CF4F2
:1006CC0081E090E09BAB8AAB3FC020E03FEF4FE76F
:1006DC0057E46EA57FA588A999A90E94200A18162F
:1006EC004CF520E030E040E251E46AA57BA58CA5F6
:1006FC009DA50E94290ADC01CB01BC01CD010E9401
:10070C006108DC01CB019BAB8AAB0FC080E991E0A7
:10071C009DAB8CAB8CA99DA90197F1F79DAB8CABD4
:10072C008AA99BA901979BAB8AAB8AA99BA9892B08
:10073C0069F73FC06EA57FA588A999A90E94610899
:10074C00DC01CB019BAB8AAB8AA99BA99FAB8EAB7F
:10075C008EA99FA90197F1F79FAB8EAB2AC020E021
:10076C0030E04FE753E469A17AA18BA19CA10E94D0
:10077C00200A1816ACF46DA17EA18FA198A50E9439
:10078C006108DC01CB0199AF88AF88AD99AD9BAF07
:10079C008AAF8AAD9BAD0197F1F79BAF8AAF0FC0C3
:1007AC0069A17AA18BA19CA10E946108DC01CB01FB
:1007BC0089A789A58CAF8CAD8A95F1F78CAF1A827D
:1007CC000FC08A81882F90E09E012A573F4F820FDD
:1007DC00931FFC0180810E943C098A818F5F8A8370
:1007EC008A81873070F380E090E0A0EAB1E48F87D3
:1007FC00988BA98BBA8B8E010D591F4F2BEA3AEAB5
:10080C004AEA50E46F85788989899A890E94290A75
:10081C00DC01CB01F80180839183A283B3838E0129
:10082C0009591F4F20E030E040E850E46F8578898B
:10083C0089899A890E94290ADC01CB01F8018083FD
:10084C009183A283B383CE018D599F4F20E030E07A
:10085C0040E85FE3FC0160817181828193810E9499
:10086C001B0A88233CF4CE0185599F4F21E0FC01E3
:10087C0020832CC1CE0189599F4F20E03FEF4FE7D9
:10088C0057E4FC0160817181828193810E94200A6E
:10089C0018160CF0CDC020E030E04AE754E46F8528
:1008AC00788989899A890E94250ADC01CB019E01ED
:1008BC0024593F4FF90180839183A283B3838E0126
:1008CC0000591F4FCE0184599F4F20E030E04AE77A
:1008DC0055E4FC0160817181828193810E94290A17
:1008EC00DC01CB01F80180839183A283B383CE0119
:1008FC0080599F4F20E030E040E85FE3FC016081CD
:10090C007181828193810E941B0A88234CF4CE0151
:10091C008C589F4F21E030E0FC01318320836DC067
:10092C00CE0180599F4F20E03FEF4FE757E4FC0189
:10093C0060817181828193810E94200A18160CF0CB
:10094C004AC0CE0184599F4F20E030E040E251E490
:10095C00FC0160817181828193810E94290ADC01F2
:10096C00CB018E010C581F4FBC01CD010E946108B8
:10097C00DC01CB01F8019183808324C0CE018A581D
:10098C009F4F20E931E0FC0131832083CE018A584E
:10099C009F4FFC01808191810197F1F79E012A58AC
:1009AC003F4FF90191838083CE018C589F4F9E015C
:1009BC002C583F4FF9012081318121503109FC0124
:1009CC0031832083CE018C589F4FFC018081918113
:1009DC00892BA1F67BC08E010C581F4FCE0180597C
:1009EC009F4FFC0160817181828193810E9461081B
:1009FC00DC01CB01F80191838083CE0188589F4F95
:100A0C009E012C583F4FF90120813181FC0131832B
:100A1C002083CE0188589F4FFC01808191810197E2
:100A2C00F1F79E0128583F4FF901918380834EC006
:100A3C00CE018D599F4F20E030E04FE753E4FC018D
:100A4C0060817181828193810E94200A18166CF555
:100A5C008E0106581F4FCE0189599F4FFC016081B2
:100A6C007181828193810E946108DC01CB01F801C4
:100A7C0091838083CE0184589F4F9E0126583F4F0F
:100A8C00F90120813181FC0131832083CE0184580E
:100A9C009F4FFC01808191810197F1F79E012458B1
:100AAC003F4FF9019183808328C08E0105591F4F58
:100ABC00CE018D599F4FFC016081718182819381A0
:100ACC000E946108DC01CB01F8018083CE018258C1
:100ADC009F4F9E0125593F4FF9012081FC01208336
:100AEC00CE0182589F4FFC018081282F2A95F1F767
:100AFC00CE0182589F4FFC0120830E94D30980E0D5
:100B0C0090E0AAE7B4E48F839887A987BA878E010F
:100B1C00075A1F4F20E030E04AE755E46F81788593
:100B2C0089859A850E94290ADC01CB01F801808312
:100B3C009183A283B383CE01875A9F4F20E030E08C
:100B4C0040E85FE3FC0160817181828193810E94A6
:100B5C001B0A88234CF4CE01835A9F4F21E030E0CE
:100B6C00FC013183208369C0CE01875A9F4F20E05E
:100B7C003FEF4FE757E4FC016081718182819381E3
:100B8C000E94200A18160CF046C020E030E040E22B
:100B9C0051E46F81788589859A850E94290ADC0148
:100BAC00CB018E01035A1F4FBC01CD010E9461087D
:100BBC00DC01CB01F8019183808324C0CE01815AE2
:100BCC009F4F20E931E0FC0131832083CE01815A13
:100BDC009F4FFC01808191810197F1F79E01215A71
:100BEC003F4FF90191838083CE01835A9F4F9E0121
:100BFC00235A3F4FF9012081318121503109FC01E9
:100C0C0031832083CE01835A9F4FFC0180819181D7
:100C1C00892BA1F62CC08E01035A1F4FCE01875A87
:100C2C009F4FFC0160817181828193810E946108D8
:100C3C00DC01CB01F80191838083CE018F599F4F4A
:100C4C009E01235A3F4FF90120813181FC013183F0
:100C5C002083CE018F599F4FFC0180819181019798
:100C6C00F1F79E012F593F4FF9019183808385CA7B
:100C7C00CF93DF93CDB7DEB7A0970FB6F894DEBF56
:100C8C000FBECDBF86E590E024E9FC01208380E017
:100C9C0090E0A8E4B2E489839A83AB83BC832BEA0B
:100CAC003AEA4AEA5EE369817A818B819C810E94EF
:100CBC00290ADC01CB018D839E83AF83B88720E0AA
:100CCC0030E040E85EE369817A818B819C810E94EF
:100CDC00290ADC01CB0189879A87AB87BC8720E086
:100CEC0030E040E85FE36D817E818F8198850E94C2
:100CFC001B0A88231CF481E08D87B2C020E03FEFF3
:100D0C004FE757E469857A858B859C850E94200A7C
:100D1C0018160CF07BC020E030E04AE754E46981FF
:100D2C007A818B819C810E94250ADC01CB018E8704
:100D3C009F87A88BB98B20E030E04AE753E46E859F
:100D4C007F85888999890E94290ADC01CB018A8BCD
:100D5C009B8BAC8BBD8B20E030E040E85FE36A8975
:100D6C007B898C899D890E941B0A88232CF481E045
:100D7C0090E09F8B8E8B3FC020E03FEF4FE757E416
:100D8C006A897B898C899D890E94200A18164CF5EA
:100D9C0020E030E040E251E46E857F8588899989B6
:100DAC000E94290ADC01CB01BC01CD010E94610823
:100DBC00DC01CB019F8B8E8B0FC089E190E0998F6A
:100DCC00888F888D998D0197F1F7998F888F8E89EF
:100DDC009F8901979F8B8E8B8E899F89892B69F7B1
:100DEC003FC06A897B898C899D890E946108DC01DE
:100DFC00CB019F8B8E8B8E899F899B8F8A8F8A8D3F
:100E0C009B8D0197F1F79B8F8A8F2AC020E030E0F1
:100E1C004FE753E46D817E818F8198850E94200A73
:100E2C001816ACF469857A858B859C850E946108BF
:100E3C00DC01CB019D8F8C8F8C8D9D8D9F8F8E8F28
:100E4C008E8D9F8D0197F1F79F8F8E8F0FC06D81C7
:100E5C007E818F8198850E946108DC01CB018D8792
:100E6C008D8588A388A18A95F1F788A30000A096A8
:100E7C000FB6F894DEBF0FBECDBFDF91CF910895B2
:100E8C0010C00E94070A58F00E94000A40F029F492
:100E9C005F3F29F00C94150A51110C940F0A0C9415
:100EAC002D0A0E94FE0868F39923B1F3552391F3A0
:100EBC00951B550BBB27AA2762177307840738F0BD
:100ECC009F5F5F4F220F331F441FAA1FA9F335D01A
:100EDC000E2E3AF0E0E832D091505040E695001CCE
:100EEC00CAF72BD0FE2F29D0660F771F881FBB1F88
:100EFC00261737074807AB07B0E809F0BB0B802D66
:100F0C00BF01FF2793585F4F3AF09E3F510578F091
:100F1C000C94150A0C940F0A5F3FE4F3983ED4F33B
:100F2C00869577956795B795F7959F5FC9F7880F65
:100F3C00911D9695879597F90895E1E0660F771FB7
:100F4C00881FBB1F621773078407BA0720F0621B48
:0E0F5C00730B840BBA0BEE1F88F7E095089517
:100F6A000FC00E94000A38F00E94070A20F0952359
:100F7A0011F00C94150A0C942D0A11240C940F0AE2
:100F8A000E94FE0870F3959FC1F3950F50E0551F1C
:100F9A00629FF001729FBB27F00DB11D639FAA27C4
:100FAA00F00DB11DAA1F649F6627B00DA11D661F13
:100FBA00829F2227B00DA11D621F739FB00DA11D34
:100FCA00621F839FA00D611D221F749F3327A00DEE
:100FDA00611D231F849F600D211D822F762F6A2F8A
:100FEA0011249F5750409AF0F1F088234AF0EE0FEF
:100FFA00FF1FBB1F661F771F881F91505040A9F71C
:10100A009E3F510580F00C94150A0C940F0A5F3F1D
:10101A00E4F3983ED4F3869577956795B795F79557
:10102A00E7959F5FC1F7FE2B880F911D96958795CF
:04103A0097F9089585
:10103E000F931F93CF93DF93CDB7DEB728970FB6DD
:10104E00F894DEBF0FBECDBF69837A838B839C83FA
:10105E002D833E834F83588781E290E0FC011082FE
:10106E0000E210E089819A81AB81BC812D813E81A5
:10107E004F815885BC01CD010E94DC08DA01C901FF
:10108E004097A109B109B695A79597958795F8014F
:10109E00808386E590E024E0FC0120830000289602
:1010AE000FB6F894DEBF0FBECDBFDF91CF911F916B
:0410BE000F910895F1
:1010C2000E94060988F09F5798F0B92F9927B751C7
:1010D200B0F0E1F0660F771F881F991F1AF0BA95DA
:1010E200C9F714C0B13091F00E940E0AB1E0089520
:1010F2000C940E0A672F782F8827B85F39F0B93F12
:10110200CCF3869577956795B395D9F73EF490958C
:0E1112008095709561957F4F8F4F9F4F089588
:10112000CF93DF93CDB7DEB787E390E027E330E0DE
:10113000F9012081206BFC01208387E390E027E305
:1011400030E0F90120812F7BFC01208388E390E0CF
:1011500028E330E0F90120812061FC0120838DE249
:1011600090E021E5FC0120830000DF91CF910895FC
:10117000990F0008550FAA0BE0E8FEEF16161706A8
:10118000E807F907C0F012161306E407F50798F010
:10119000621B730B840B950B39F40A2661F0232B29
:1011A000242B252B21F408950A2609F4A140A695A5
:0811B0008FEF811D811D0895E0
:1011B800A1E21A2EAA1BBB1BFD010DC0AA1FBB1F53
:1011C800EE1FFF1FA217B307E407F50720F0A21BC5
:1011D800B30BE40BF50B661F771F881F991F1A9432
:1011E80069F760957095809590959B01AC01BD015C
:0411F800CF01089586
:1011FC0057FD9058440F551F59F05F3F71F04795BC
:10120C00880F97FB991F61F09F3F79F087950895A0
:10121C00121613061406551FF2CF4695F1DF08C0BF
:10122C00161617061806991FF1CF869571056105DC
:04123C000894089575
:10124000CF93DF930F92CDB7DEB7898383E290E02F
:101250002981FC01208386E590E024E8FC012083BD
:10126000000086E590E0FC0180818823D4F700002F
:081270000F90DF91CF9108956A
:10127800CF93DF930F92CDB7DEB789838FE290E0EB
:101288002981FC01208300008EE290E0FC0180812E
:101298008823D4F78FE290E0FC0180810F90DF91E2
:0412A800CF91089545
:1012AC00CF93DF93CDB7DEB786E590E024ECFC015D
:1012BC002083000086E590E0FC0180818823D4F730
:0E12CC0083E290E0FC018081DF91CF910895D4
:1012DA00CF93DF93CDB7DEB786E590E024E8FC0133
:1012EA002083000086E590E0FC0180818823D4F702
:0E12FA0083E290E0FC018081DF91CF910895A6
:10130800CF93DF930F92CDB7DEB78983898182951A
:101318008F70880F982F990F990F980F89818F7068
:0A132800890F0F90DF91CF91089517
:10133200CF93DF93CDB7DEB70E94AE0980ED0E9456
:10134200200980E00E94200980E00E9420090E947A
:0A1352003E060000DF91CF910895E0
:10135C00CF93DF93CDB7DEB786E590E024EAFC01AE
:10136C002083000086E590E0FC0180818823D4F77F
:08137C000000DF91CF910895FC
:10138400CF93DF93CDB7DEB788E390E028E330E076
:10139400F90120812F7EFC0120830000DF91CF9191
:0213A4000895AA
:1013A600CF93DF93CDB7DEB788E390E028E330E054
:1013B600F90120812061FC0120830000DF91CF919B
:0213C600089588
:1013C800092E0394000C11F4882352F0BB0F40F44B
:1013D800BF2B11F460FF04C06F5F7F4F8F4F9F4F8B
:0213E800089566
:1013EA00EC010E94350A0E94340ACE010E94360A94
:0613FA00CE010E94320A40
:0E14000000240A941616170618060906089509
:0E140E0000240A94121613061406050608950B
:0E141C00E894BB2766277727CB0197F9089540
:0C142A0097F99F6780E870E060E008958B
:0A1436000E94B80808F481E0089550
:0A1440000E94B80808F48FEF089529
:08144A000E9446070C94E4091E
:081452000E94B5070C94E409A7
:06145A009FEF80EC0895F5
:041460000C940000E8
:041464000E943400AE
:021468000895E5
:02146A000895E3
:02146C000895E1
:00000001FF
