:100000000C942A000C9497050C9497050C94970572
:100010000C9497050C9497050C9497050C949705F0
:100020000C9497050C9497050C9497050C949705E0
:100030000C9497050C9497050C9497050C949705D0
:100040000C9497050C9497050C9497050C949705C0
:100050000C94970511241FBECFE5D8E0DEBFCDBFBD
:0C0060000E9436000C945C05F894FFCF61
:10006C000F931F93CF93DF93CDB7DEB7AC970FB63B
:10007C00F894DEBF0FBECDBF20EA36E841E050E079
:10008C0060E074E284EF90E00E9486030E94F70324
:10009C0080E090E0A8ECB2E48F839887A987BA87B8
:1000AC0020E030E04AE755E46F81788589859A85B0
:1000BC000E949005DC01CB018B879C87AD87BE87A6
:1000CC0020E030E040E85FE36B857C858D859E8584
:1000DC000E94820588232CF481E090E0988B8F8716
:1000EC003FC020E03FEF4FE757E46B857C858D8563
:1000FC009E850E94870518164CF520E030E040E202
:10010C0051E46F81788589859A850E949005DC0180
:10011C00CB01BC01CD010E94C803DC01CB01988B43
:10012C008F870FC080E991E09A8B898B89899A8996
:10013C000197F1F79A8B898B8F8598890197988B0A
:10014C008F878F859889892B69F714C06B857C857F
:10015C008D859E850E94C803DC01CB01988B8F870F
:10016C008F8598899C8B8B8B8B899C890197F1F758
:10017C009C8B8B8B0E9400050E94150580ED0E94C4
:10018C00870480E00E9487040E94150581ED0E947F
:10019C00870419820FC08981082F10E00E94BD04CA
:1001AC00282FCE014F96800F911FFC01208389814F
:1001BC008F5F89838981863070F30E94D4048DA36C
:1001CC000E94A5018F8D8F770E94EB048EA388A1CE
:1001DC008F770E94EB048FA389A1882F90E0807405
:1001EC009927892B31F089A18F710E94EB0488A784
:1001FC0005C089A18F730E94EB0488A78AA1877020
:10020C000E94EB0489A78BA18F730E94EB048AA731
:10021C008CA18F710E94EB048BA78DA10E94EB0423
:10022C008CA70E9429058AEA0E94A3041A820FC097
:10023C008A81882F90E09E012A5D3F4F820F931F89
:10024C00FC0180810E94A3048A818F5F8A838A814A
:10025C00873070F30E943A0580E090E0AAE7B4E49E
:10026C008B839C83AD83BE8320E030E04AE755E46A
:10027C006B817C818D819E810E949005DC01CB017C
:10028C008D8B9E8BAF8BB88F20E030E040E85FE326
:10029C006D897E898F89988D0E94820588232CF424
:1002AC0081E090E09A8F898F3FC020E03FEF4FE7CD
:1002BC0057E46D897E898F89988D0E948705181661
:1002CC004CF520E030E040E251E46B817C818D8183
:1002DC009E810E949005DC01CB01BC01CD010E94E6
:1002EC00C803DC01CB019A8F898F0FC080E991E0A4
:1002FC009C8F8B8F8B8D9C8D0197F1F79C8F8B8FA7
:10030C00898D9A8D01979A8F898F898D9A8D892BDA
:10031C0069F714C06D897E898F89988D0E94C803F6
:10032C00DC01CB019A8F898F898D9A8D9E8F8D8F51
:0E033C008D8D9E8D0197F1F79E8F8D8F1DCFB9
:10034A00CF93DF93CDB7DEB7A0970FB6F894DEBF91
:10035A000FBECDBF86E590E024E9FC01208380E052
:10036A0090E0A8E4B2E489839A83AB83BC832BEA46
:10037A003AEA4AEA5EE369817A818B819C810E942A
:10038A009005DC01CB018D839E83AF83B88720E083
:10039A0030E040E85EE369817A818B819C810E942A
:1003AA009005DC01CB0189879A87AB87BC8720E05F
:1003BA0030E040E85FE36D817E818F8198850E94FD
:1003CA00820588231CF481E08D87B2C020E03FEFCC
:1003DA004FE757E469857A858B859C850E94870556
:1003EA0018160CF07BC020E030E04AE754E469813B
:1003FA007A818B819C810E948C05DC01CB018E87DE
:10040A009F87A88BB98B20E030E04AE753E46E85DA
:10041A007F85888999890E949005DC01CB018A8BA6
:10042A009B8BAC8BBD8B20E030E040E85FE36A89B0
:10043A007B898C899D890E94820588232CF481E01E
:10044A0090E09F8B8E8B3FC020E03FEF4FE757E451
:10045A006A897B898C899D890E94870518164CF5C3
:10046A0020E030E040E251E46E857F8588899989F1
:10047A000E949005DC01CB01BC01CD010E94C8039A
:10048A00DC01CB019F8B8E8B0FC089E190E0998FA5
:10049A00888F888D998D0197F1F7998F888F8E892A
:1004AA009F8901979F8B8E8B8E899F89892B69F7EC
:1004BA003FC06A897B898C899D890E94C803DC01B7
:1004CA00CB019F8B8E8B8E899F899B8F8A8F8A8D7A
:1004DA009B8D0197F1F79B8F8A8F2AC020E030E02D
:1004EA004FE753E46D817E818F8198850E9487054D
:1004FA001816ACF469857A858B859C850E94C80399
:10050A00DC01CB019D8F8C8F8C8D9D8D9F8F8E8F63
:10051A008E8D9F8D0197F1F79F8F8E8F0FC06D8102
:10052A007E818F8198850E94C803DC01CB018D876B
:10053A008D8588A388A18A95F1F788A30000A096E3
:10054A000FB6F894DEBF0FBECDBFDF91CF910895ED
:10055A0010C00E946E0558F00E94670540F029F409
:10056A005F3F29F00C947C0551110C9476050C948C
:10057A0094050E94650468F39923B1F3552391F316
:10058A00951B550BBB27AA2762177307840738F0F8
:10059A009F5F5F4F220F331F441FAA1FA9F335D055
:1005AA000E2E3AF0E0E832D091505040E695001C09
:1005BA00CAF72BD0FE2F29D0660F771F881FBB1FC3
:1005CA00261737074807AB07B0E809F0BB0B802DA1
:1005DA00BF01FF2793585F4F3AF09E3F510578F0CD
:1005EA000C947C050C9476055F3FE4F3983ED4F3B3
:1005FA00869577956795B795F7959F5FC9F7880FA1
:10060A00911D9695879597F90895E1E0660F771FF2
:10061A00881FBB1F621773078407BA0720F0621B83
:0E062A00730B840BBA0BEE1F88F7E095089552
:100638000FC00E94670538F00E946E0520F09523D0
:1006480011F00C947C050C94940511240C947605F7
:100658000E94650470F3959FC1F3950F50E0551FF4
:10066800629FF001729FBB27F00DB11D639FAA27FF
:10067800F00DB11DAA1F649F6627B00DA11D661F4E
:10068800829F2227B00DA11D621F739FB00DA11D6F
:10069800621F839FA00D611D221F749F3327A00D29
:1006A800611D231F849F600D211D822F762F6A2FC5
:1006B80011249F5750409AF0F1F088234AF0EE0F2A
:1006C800FF1FBB1F661F771F881F91505040A9F757
:1006D8009E3F510580F00C947C050C9476055F3F95
:1006E800E4F3983ED4F3869577956795B795F79593
:1006F800E7959F5FC1F7FE2B880F911D969587950B
:0407080097F90895C0
:10070C000F931F93CF93DF93CDB7DEB728970FB618
:10071C00F894DEBF0FBECDBF69837A838B839C8335
:10072C002D833E834F83588781E290E0FC01108239
:10073C0000E210E089819A81AB81BC812D813E81E0
:10074C004F815885BC01CD010E944304DA01C901D7
:10075C004097A109B109B695A79597958795F8018A
:10076C00808386E590E024E0FC012083000028963D
:10077C000FB6F894DEBF0FBECDBFDF91CF911F91A6
:04078C000F9108952C
:100790000E946D0488F09F5798F0B92F9927B751A0
:1007A000B0F0E1F0660F771F881F991F1AF0BA9515
:1007B000C9F714C0B13091F00E947505B1E00895F9
:1007C0000C947505672F782F8827B85F39F0B93FEB
:1007D000CCF3869577956795B395D9F73EF49095C8
:0E07E0008095709561957F4F8F4F9F4F0895C4
:1007EE00CF93DF93CDB7DEB787E390E027E330E01A
:1007FE00F9012081206BFC01208387E390E027E341
:10080E0030E0F90120812F7BFC01208388E390E00A
:10081E0028E330E0F90120812061FC0120838DE284
:10082E0090E021E5FC0120830000DF91CF91089537
:10083E00990F0008550FAA0BE0E8FEEF16161706E3
:10084E00E807F907C0F012161306E407F50798F04B
:10085E00621B730B840B950B39F40A2661F0232B64
:10086E00242B252B21F408950A2609F4A140A695E0
:08087E008FEF811D811D08951B
:10088600A1E21A2EAA1BBB1BFD010DC0AA1FBB1F8E
:10089600EE1FFF1FA217B307E407F50720F0A21B00
:1008A600B30BE40BF50B661F771F881F991F1A946D
:1008B60069F760957095809590959B01AC01BD0197
:0408C600CF010895C1
:1008CA0057FD9058440F551F59F05F3F71F04795F7
:1008DA00880F97FB991F61F09F3F79F087950895DC
:1008EA00121613061406551FF2CF4695F1DF08C0FB
:1008FA00161617061806991FF1CF86957105610518
:04090A0008940895B0
:10090E00CF93DF930F92CDB7DEB7898383E290E06A
:10091E002981FC01208386E590E024E8FC012083F8
:10092E00000086E590E0FC0180818823D4F700006A
:08093E000F90DF91CF910895A5
:10094600CF93DF930F92CDB7DEB789838FE290E026
:100956002981FC01208300008EE290E0FC01808169
:100966008823D4F78FE290E0FC0180810F90DF911D
:04097600CF91089580
:10097A00CF93DF93CDB7DEB786E590E024ECFC0198
:10098A002083000086E590E0FC0180818823D4F76B
:0E099A0083E290E0FC018081DF91CF9108950F
:1009A800CF93DF93CDB7DEB786E590E024E8FC016E
:1009B8002083000086E590E0FC0180818823D4F73D
:0E09C80083E290E0FC018081DF91CF910895E1
:1009D600CF93DF930F92CDB7DEB789838981829556
:1009E6008F70880F982F990F990F980F89818F70A4
:0A09F600890F0F90DF91CF91089553
:100A0000CF93DF93CDB7DEB70E94150580ED0E942E
:100A1000870480E00E94870480E00E9487040E948F
:0A0A2000A5010000DF91CF910895B9
:100A2A00CF93DF93CDB7DEB786E590E024EAFC01E9
:100A3A002083000086E590E0FC0180818823D4F7BA
:080A4A000000DF91CF91089537
:100A5200CF93DF93CDB7DEB788E390E028E330E0B1
:100A6200F90120812F7EFC0120830000DF91CF91CC
:020A72000895E5
:100A7400CF93DF93CDB7DEB788E390E028E330E08F
:100A8400F90120812061FC0120830000DF91CF91D6
:020A94000895C3
:100A9600092E0394000C11F4882352F0BB0F40F486
:100AA600BF2B11F460FF04C06F5F7F4F8F4F9F4FC6
:020AB6000895A1
:100AB800EC010E949C050E949B05CE010E949D05A9
:060AC800CE010E94990519
:0E0ACE0000240A941616170618060906089545
:0E0ADC0000240A941216130614060506089547
:0E0AEA00E894BB2766277727CB0197F908957C
:0C0AF80097F99F6780E870E060E00895C7
:0A0B04000E941F0408F481E0089528
:0A0B0E000E941F0408F48FEF089501
:080B18000E94AD020C944B0594
:080B20000E941C030C944B051C
:060B28009FEF80EC089530
:040B2E000C94000023
:040B32000E943400E9
:020B3600089520
:020B380008951E
:020B3A0008951C
:00000001FF
